{
  "_format": "hh-sol-artifact-1",
  "contractName": "WhizKids",
  "sourceName": "contracts/WhizKids.sol",
  "abi": [
    {
      "inputs": [],
      "stateMutability": "nonpayable",
      "type": "constructor"
    },
    {
      "anonymous": false,
      "inputs": [
        {
          "indexed": true,
          "internalType": "address",
          "name": "owner",
          "type": "address"
        },
        {
          "indexed": true,
          "internalType": "address",
          "name": "approved",
          "type": "address"
        },
        {
          "indexed": true,
          "internalType": "uint256",
          "name": "tokenId",
          "type": "uint256"
        }
      ],
      "name": "Approval",
      "type": "event"
    },
    {
      "anonymous": false,
      "inputs": [
        {
          "indexed": true,
          "internalType": "address",
          "name": "owner",
          "type": "address"
        },
        {
          "indexed": true,
          "internalType": "address",
          "name": "operator",
          "type": "address"
        },
        {
          "indexed": false,
          "internalType": "bool",
          "name": "approved",
          "type": "bool"
        }
      ],
      "name": "ApprovalForAll",
      "type": "event"
    },
    {
      "anonymous": false,
      "inputs": [
        {
          "indexed": false,
          "internalType": "address",
          "name": "account",
          "type": "address"
        }
      ],
      "name": "Paused",
      "type": "event"
    },
    {
      "anonymous": false,
      "inputs": [
        {
          "indexed": true,
          "internalType": "bytes32",
          "name": "role",
          "type": "bytes32"
        },
        {
          "indexed": true,
          "internalType": "bytes32",
          "name": "previousAdminRole",
          "type": "bytes32"
        },
        {
          "indexed": true,
          "internalType": "bytes32",
          "name": "newAdminRole",
          "type": "bytes32"
        }
      ],
      "name": "RoleAdminChanged",
      "type": "event"
    },
    {
      "anonymous": false,
      "inputs": [
        {
          "indexed": true,
          "internalType": "bytes32",
          "name": "role",
          "type": "bytes32"
        },
        {
          "indexed": true,
          "internalType": "address",
          "name": "account",
          "type": "address"
        },
        {
          "indexed": true,
          "internalType": "address",
          "name": "sender",
          "type": "address"
        }
      ],
      "name": "RoleGranted",
      "type": "event"
    },
    {
      "anonymous": false,
      "inputs": [
        {
          "indexed": true,
          "internalType": "bytes32",
          "name": "role",
          "type": "bytes32"
        },
        {
          "indexed": true,
          "internalType": "address",
          "name": "account",
          "type": "address"
        },
        {
          "indexed": true,
          "internalType": "address",
          "name": "sender",
          "type": "address"
        }
      ],
      "name": "RoleRevoked",
      "type": "event"
    },
    {
      "anonymous": false,
      "inputs": [
        {
          "indexed": true,
          "internalType": "address",
          "name": "from",
          "type": "address"
        },
        {
          "indexed": true,
          "internalType": "address",
          "name": "to",
          "type": "address"
        },
        {
          "indexed": true,
          "internalType": "uint256",
          "name": "tokenId",
          "type": "uint256"
        }
      ],
      "name": "Transfer",
      "type": "event"
    },
    {
      "anonymous": false,
      "inputs": [
        {
          "indexed": false,
          "internalType": "address",
          "name": "account",
          "type": "address"
        }
      ],
      "name": "Unpaused",
      "type": "event"
    },
    {
      "inputs": [],
      "name": "DEFAULT_ADMIN_ROLE",
      "outputs": [
        {
          "internalType": "bytes32",
          "name": "",
          "type": "bytes32"
        }
      ],
      "stateMutability": "view",
      "type": "function"
    },
    {
      "inputs": [],
      "name": "MINTER_ROLE",
      "outputs": [
        {
          "internalType": "bytes32",
          "name": "",
          "type": "bytes32"
        }
      ],
      "stateMutability": "view",
      "type": "function"
    },
    {
      "inputs": [],
      "name": "PAUSER_ROLE",
      "outputs": [
        {
          "internalType": "bytes32",
          "name": "",
          "type": "bytes32"
        }
      ],
      "stateMutability": "view",
      "type": "function"
    },
    {
      "inputs": [
        {
          "internalType": "address",
          "name": "to",
          "type": "address"
        },
        {
          "internalType": "uint256",
          "name": "tokenId",
          "type": "uint256"
        }
      ],
      "name": "approve",
      "outputs": [],
      "stateMutability": "nonpayable",
      "type": "function"
    },
    {
      "inputs": [
        {
          "internalType": "address",
          "name": "owner",
          "type": "address"
        }
      ],
      "name": "balanceOf",
      "outputs": [
        {
          "internalType": "uint256",
          "name": "",
          "type": "uint256"
        }
      ],
      "stateMutability": "view",
      "type": "function"
    },
    {
      "inputs": [
        {
          "internalType": "uint256",
          "name": "tokenId",
          "type": "uint256"
        }
      ],
      "name": "burn",
      "outputs": [],
      "stateMutability": "nonpayable",
      "type": "function"
    },
    {
      "inputs": [
        {
          "internalType": "uint256",
          "name": "tokenId",
          "type": "uint256"
        }
      ],
      "name": "getApproved",
      "outputs": [
        {
          "internalType": "address",
          "name": "",
          "type": "address"
        }
      ],
      "stateMutability": "view",
      "type": "function"
    },
    {
      "inputs": [],
      "name": "getBalance",
      "outputs": [
        {
          "internalType": "uint256",
          "name": "",
          "type": "uint256"
        }
      ],
      "stateMutability": "view",
      "type": "function"
    },
    {
      "inputs": [
        {
          "internalType": "bytes32",
          "name": "role",
          "type": "bytes32"
        }
      ],
      "name": "getRoleAdmin",
      "outputs": [
        {
          "internalType": "bytes32",
          "name": "",
          "type": "bytes32"
        }
      ],
      "stateMutability": "view",
      "type": "function"
    },
    {
      "inputs": [
        {
          "internalType": "bytes32",
          "name": "role",
          "type": "bytes32"
        },
        {
          "internalType": "uint256",
          "name": "index",
          "type": "uint256"
        }
      ],
      "name": "getRoleMember",
      "outputs": [
        {
          "internalType": "address",
          "name": "",
          "type": "address"
        }
      ],
      "stateMutability": "view",
      "type": "function"
    },
    {
      "inputs": [
        {
          "internalType": "bytes32",
          "name": "role",
          "type": "bytes32"
        }
      ],
      "name": "getRoleMemberCount",
      "outputs": [
        {
          "internalType": "uint256",
          "name": "",
          "type": "uint256"
        }
      ],
      "stateMutability": "view",
      "type": "function"
    },
    {
      "inputs": [
        {
          "internalType": "bytes32",
          "name": "role",
          "type": "bytes32"
        },
        {
          "internalType": "address",
          "name": "account",
          "type": "address"
        }
      ],
      "name": "grantRole",
      "outputs": [],
      "stateMutability": "nonpayable",
      "type": "function"
    },
    {
      "inputs": [
        {
          "internalType": "bytes32",
          "name": "role",
          "type": "bytes32"
        },
        {
          "internalType": "address",
          "name": "account",
          "type": "address"
        }
      ],
      "name": "hasRole",
      "outputs": [
        {
          "internalType": "bool",
          "name": "",
          "type": "bool"
        }
      ],
      "stateMutability": "view",
      "type": "function"
    },
    {
      "inputs": [
        {
          "internalType": "address",
          "name": "owner",
          "type": "address"
        },
        {
          "internalType": "address",
          "name": "operator",
          "type": "address"
        }
      ],
      "name": "isApprovedForAll",
      "outputs": [
        {
          "internalType": "bool",
          "name": "",
          "type": "bool"
        }
      ],
      "stateMutability": "view",
      "type": "function"
    },
    {
      "inputs": [
        {
          "internalType": "address",
          "name": "to",
          "type": "address"
        }
      ],
      "name": "mint",
      "outputs": [],
      "stateMutability": "payable",
      "type": "function"
    },
    {
      "inputs": [],
      "name": "name",
      "outputs": [
        {
          "internalType": "string",
          "name": "",
          "type": "string"
        }
      ],
      "stateMutability": "view",
      "type": "function"
    },
    {
      "inputs": [
        {
          "internalType": "uint256",
          "name": "tokenId",
          "type": "uint256"
        }
      ],
      "name": "ownerOf",
      "outputs": [
        {
          "internalType": "address",
          "name": "",
          "type": "address"
        }
      ],
      "stateMutability": "view",
      "type": "function"
    },
    {
      "inputs": [],
      "name": "pause",
      "outputs": [],
      "stateMutability": "nonpayable",
      "type": "function"
    },
    {
      "inputs": [],
      "name": "paused",
      "outputs": [
        {
          "internalType": "bool",
          "name": "",
          "type": "bool"
        }
      ],
      "stateMutability": "view",
      "type": "function"
    },
    {
      "inputs": [
        {
          "internalType": "bytes32",
          "name": "role",
          "type": "bytes32"
        },
        {
          "internalType": "address",
          "name": "account",
          "type": "address"
        }
      ],
      "name": "renounceRole",
      "outputs": [],
      "stateMutability": "nonpayable",
      "type": "function"
    },
    {
      "inputs": [
        {
          "internalType": "bytes32",
          "name": "role",
          "type": "bytes32"
        },
        {
          "internalType": "address",
          "name": "account",
          "type": "address"
        }
      ],
      "name": "revokeRole",
      "outputs": [],
      "stateMutability": "nonpayable",
      "type": "function"
    },
    {
      "inputs": [
        {
          "internalType": "address",
          "name": "from",
          "type": "address"
        },
        {
          "internalType": "address",
          "name": "to",
          "type": "address"
        },
        {
          "internalType": "uint256",
          "name": "tokenId",
          "type": "uint256"
        }
      ],
      "name": "safeTransferFrom",
      "outputs": [],
      "stateMutability": "nonpayable",
      "type": "function"
    },
    {
      "inputs": [
        {
          "internalType": "address",
          "name": "from",
          "type": "address"
        },
        {
          "internalType": "address",
          "name": "to",
          "type": "address"
        },
        {
          "internalType": "uint256",
          "name": "tokenId",
          "type": "uint256"
        },
        {
          "internalType": "bytes",
          "name": "_data",
          "type": "bytes"
        }
      ],
      "name": "safeTransferFrom",
      "outputs": [],
      "stateMutability": "nonpayable",
      "type": "function"
    },
    {
      "inputs": [
        {
          "internalType": "address",
          "name": "operator",
          "type": "address"
        },
        {
          "internalType": "bool",
          "name": "approved",
          "type": "bool"
        }
      ],
      "name": "setApprovalForAll",
      "outputs": [],
      "stateMutability": "nonpayable",
      "type": "function"
    },
    {
      "inputs": [
        {
          "internalType": "bytes4",
          "name": "interfaceId",
          "type": "bytes4"
        }
      ],
      "name": "supportsInterface",
      "outputs": [
        {
          "internalType": "bool",
          "name": "",
          "type": "bool"
        }
      ],
      "stateMutability": "view",
      "type": "function"
    },
    {
      "inputs": [],
      "name": "symbol",
      "outputs": [
        {
          "internalType": "string",
          "name": "",
          "type": "string"
        }
      ],
      "stateMutability": "view",
      "type": "function"
    },
    {
      "inputs": [
        {
          "internalType": "uint256",
          "name": "index",
          "type": "uint256"
        }
      ],
      "name": "tokenByIndex",
      "outputs": [
        {
          "internalType": "uint256",
          "name": "",
          "type": "uint256"
        }
      ],
      "stateMutability": "view",
      "type": "function"
    },
    {
      "inputs": [
        {
          "internalType": "address",
          "name": "owner",
          "type": "address"
        },
        {
          "internalType": "uint256",
          "name": "index",
          "type": "uint256"
        }
      ],
      "name": "tokenOfOwnerByIndex",
      "outputs": [
        {
          "internalType": "uint256",
          "name": "",
          "type": "uint256"
        }
      ],
      "stateMutability": "view",
      "type": "function"
    },
    {
      "inputs": [
        {
          "internalType": "uint256",
          "name": "tokenId",
          "type": "uint256"
        }
      ],
      "name": "tokenURI",
      "outputs": [
        {
          "internalType": "string",
          "name": "",
          "type": "string"
        }
      ],
      "stateMutability": "view",
      "type": "function"
    },
    {
      "inputs": [],
      "name": "totalSupply",
      "outputs": [
        {
          "internalType": "uint256",
          "name": "",
          "type": "uint256"
        }
      ],
      "stateMutability": "view",
      "type": "function"
    },
    {
      "inputs": [
        {
          "internalType": "address",
          "name": "from",
          "type": "address"
        },
        {
          "internalType": "address",
          "name": "to",
          "type": "address"
        },
        {
          "internalType": "uint256",
          "name": "tokenId",
          "type": "uint256"
        }
      ],
      "name": "transferFrom",
      "outputs": [],
      "stateMutability": "nonpayable",
      "type": "function"
    },
    {
      "inputs": [],
      "name": "unpause",
      "outputs": [],
      "stateMutability": "nonpayable",
      "type": "function"
    },
    {
      "inputs": [],
      "name": "withdraw",
      "outputs": [],
      "stateMutability": "payable",
      "type": "function"
    }
  ],
  "bytecode": "0x60806040523480156200001157600080fd5b506040518060400160405280600881526020017f5768697a4b6964730000000000000000000000000000000000000000000000008152506040518060400160405280600381526020017f57485a0000000000000000000000000000000000000000000000000000000000815250604051806060016040528060278152602001620053386027913982828160029080519060200190620000b292919062000497565b508060039080519060200190620000cb92919062000497565b5050506000600c60006101000a81548160ff02191690831515021790555080600e90805190602001906200010192919062000497565b50620001266000801b6200011a6200020160201b60201c565b6200020960201b60201c565b620001677f9f2df0fed2c77648de5860a4cc508cd0818c85b8b8a1ab4ceeef8d981c8956a66200015b6200020160201b60201c565b6200020960201b60201c565b620001a87f65d7a28e3265b37a6474929f336521b332c1681b933f6cb9f3376673440d862a6200019c6200020160201b60201c565b6200020960201b60201c565b505050620001bb6200020160201b60201c565b600f60006101000a81548173ffffffffffffffffffffffffffffffffffffffff021916908373ffffffffffffffffffffffffffffffffffffffff160217905550620005ac565b600033905090565b6200021b82826200021f60201b60201c565b5050565b6200023682826200026760201b620014361760201c565b6200026281600160008581526020019081526020016000206200035860201b620015161790919060201c565b505050565b6200027982826200039060201b60201c565b6200035457600160008084815260200190815260200160002060000160008373ffffffffffffffffffffffffffffffffffffffff1673ffffffffffffffffffffffffffffffffffffffff16815260200190815260200160002060006101000a81548160ff021916908315150217905550620002f96200020160201b60201c565b73ffffffffffffffffffffffffffffffffffffffff168173ffffffffffffffffffffffffffffffffffffffff16837f2f8788117e7eff1d82e926ec794901d17c78024a50270940304540a733656f0d60405160405180910390a45b5050565b600062000388836000018373ffffffffffffffffffffffffffffffffffffffff1660001b620003fa60201b60201c565b905092915050565b600080600084815260200190815260200160002060000160008373ffffffffffffffffffffffffffffffffffffffff1673ffffffffffffffffffffffffffffffffffffffff16815260200190815260200160002060009054906101000a900460ff16905092915050565b60006200040e83836200047460201b60201c565b620004695782600001829080600181540180825580915050600190039060005260206000200160009091909190915055826000018054905083600101600084815260200190815260200160002081905550600190506200046e565b600090505b92915050565b600080836001016000848152602001908152602001600020541415905092915050565b828054620004a59062000547565b90600052602060002090601f016020900481019282620004c9576000855562000515565b82601f10620004e457805160ff191683800117855562000515565b8280016001018555821562000515579182015b8281111562000514578251825591602001919060010190620004f7565b5b50905062000524919062000528565b5090565b5b808211156200054357600081600090555060010162000529565b5090565b600060028204905060018216806200056057607f821691505b602082108114156200057757620005766200057d565b5b50919050565b7f4e487b7100000000000000000000000000000000000000000000000000000000600052602260045260246000fd5b614d7c80620005bc6000396000f3fe6080604052600436106101ee5760003560e01c80635c975abb1161010d578063a217fddf116100a0578063ca15c8731161006f578063ca15c873146106f3578063d539139314610730578063d547741f1461075b578063e63ab1e914610784578063e985e9c5146107af576101ee565b8063a217fddf14610639578063a22cb46514610664578063b88d4fde1461068d578063c87b56dd146106b6576101ee565b80638456cb59116100dc5780638456cb591461057d5780639010d07c1461059457806391d14854146105d157806395d89b411461060e576101ee565b80635c975abb146104bc5780636352211e146104e75780636a6278421461052457806370a0823114610540576101ee565b80632f2ff15d116101855780633f4ba83a116101545780633f4ba83a1461041657806342842e0e1461042d57806342966c68146104565780634f6ccce71461047f576101ee565b80632f2ff15d1461037d5780632f745c59146103a657806336568abe146103e35780633ccfd60b1461040c576101ee565b806312065fe0116101c157806312065fe0146102c157806318160ddd146102ec57806323b872dd14610317578063248a9ca314610340576101ee565b806301ffc9a7146101f357806306fdde0314610230578063081812fc1461025b578063095ea7b314610298575b600080fd5b3480156101ff57600080fd5b5061021a60048036038101906102159190613709565b6107ec565b6040516102279190613d41565b60405180910390f35b34801561023c57600080fd5b506102456107fe565b6040516102529190613d77565b60405180910390f35b34801561026757600080fd5b50610282600480360381019061027d919061375b565b610890565b60405161028f9190613cda565b60405180910390f35b3480156102a457600080fd5b506102bf60048036038101906102ba919061362c565b610915565b005b3480156102cd57600080fd5b506102d6610a2d565b6040516102e391906140d9565b60405180910390f35b3480156102f857600080fd5b50610301610a68565b60405161030e91906140d9565b60405180910390f35b34801561032357600080fd5b5061033e60048036038101906103399190613526565b610a75565b005b34801561034c57600080fd5b5061036760048036038101906103629190613668565b610ad5565b6040516103749190613d5c565b60405180910390f35b34801561038957600080fd5b506103a4600480360381019061039f9190613691565b610af4565b005b3480156103b257600080fd5b506103cd60048036038101906103c8919061362c565b610b1d565b6040516103da91906140d9565b60405180910390f35b3480156103ef57600080fd5b5061040a60048036038101906104059190613691565b610bc2565b005b610414610c45565b005b34801561042257600080fd5b5061042b610d53565b005b34801561043957600080fd5b50610454600480360381019061044f9190613526565b610dcd565b005b34801561046257600080fd5b5061047d6004803603810190610478919061375b565b610ded565b005b34801561048b57600080fd5b506104a660048036038101906104a1919061375b565b610e49565b6040516104b391906140d9565b60405180910390f35b3480156104c857600080fd5b506104d1610ee0565b6040516104de9190613d41565b60405180910390f35b3480156104f357600080fd5b5061050e6004803603810190610509919061375b565b610ef7565b60405161051b9190613cda565b60405180910390f35b61053e600480360381019061053991906134c1565b610fa9565b005b34801561054c57600080fd5b50610567600480360381019061056291906134c1565b611000565b60405161057491906140d9565b60405180910390f35b34801561058957600080fd5b506105926110b8565b005b3480156105a057600080fd5b506105bb60048036038101906105b691906136cd565b611132565b6040516105c89190613cda565b60405180910390f35b3480156105dd57600080fd5b506105f860048036038101906105f39190613691565b611161565b6040516106059190613d41565b60405180910390f35b34801561061a57600080fd5b506106236111cb565b6040516106309190613d77565b60405180910390f35b34801561064557600080fd5b5061064e61125d565b60405161065b9190613d5c565b60405180910390f35b34801561067057600080fd5b5061068b600480360381019061068691906135f0565b611264565b005b34801561069957600080fd5b506106b460048036038101906106af9190613575565b61127a565b005b3480156106c257600080fd5b506106dd60048036038101906106d8919061375b565b6112dc565b6040516106ea9190613d77565b60405180910390f35b3480156106ff57600080fd5b5061071a60048036038101906107159190613668565b61130d565b60405161072791906140d9565b60405180910390f35b34801561073c57600080fd5b50610745611331565b6040516107529190613d5c565b60405180910390f35b34801561076757600080fd5b50610782600480360381019061077d9190613691565b611355565b005b34801561079057600080fd5b5061079961137e565b6040516107a69190613d5c565b60405180910390f35b3480156107bb57600080fd5b506107d660048036038101906107d191906134ea565b6113a2565b6040516107e39190613d41565b60405180910390f35b60006107f782611546565b9050919050565b60606002805461080d9061438c565b80601f01602080910402602001604051908101604052809291908181526020018280546108399061438c565b80156108865780601f1061085b57610100808354040283529160200191610886565b820191906000526020600020905b81548152906001019060200180831161086957829003601f168201915b5050505050905090565b600061089b826115c0565b6108da576040517f08c379a00000000000000000000000000000000000000000000000000000000081526004016108d190613f79565b60405180910390fd5b6006600083815260200190815260200160002060009054906101000a900473ffffffffffffffffffffffffffffffffffffffff169050919050565b600061092082610ef7565b90508073ffffffffffffffffffffffffffffffffffffffff168373ffffffffffffffffffffffffffffffffffffffff161415610991576040517f08c379a000000000000000000000000000000000000000000000000000000000815260040161098890613fd9565b60405180910390fd5b8073ffffffffffffffffffffffffffffffffffffffff166109b061162c565b73ffffffffffffffffffffffffffffffffffffffff1614806109df57506109de816109d961162c565b6113a2565b5b610a1e576040517f08c379a0000000000000000000000000000000000000000000000000000000008152600401610a1590613ef9565b60405180910390fd5b610a288383611634565b505050565b60007f9f2df0fed2c77648de5860a4cc508cd0818c85b8b8a1ab4ceeef8d981c8956a6610a6181610a5c61162c565b6116ed565b4791505090565b6000600a80549050905090565b610a86610a8061162c565b8261178a565b610ac5576040517f08c379a0000000000000000000000000000000000000000000000000000000008152600401610abc90614019565b60405180910390fd5b610ad0838383611868565b505050565b6000806000838152602001908152602001600020600101549050919050565b610afd82610ad5565b610b0e81610b0961162c565b6116ed565b610b188383611ac4565b505050565b6000610b2883611000565b8210610b69576040517f08c379a0000000000000000000000000000000000000000000000000000000008152600401610b6090613df9565b60405180910390fd5b600860008473ffffffffffffffffffffffffffffffffffffffff1673ffffffffffffffffffffffffffffffffffffffff168152602001908152602001600020600083815260200190815260200160002054905092915050565b610bca61162c565b73ffffffffffffffffffffffffffffffffffffffff168173ffffffffffffffffffffffffffffffffffffffff1614610c37576040517f08c379a0000000000000000000000000000000000000000000000000000000008152600401610c2e906140b9565b60405180910390fd5b610c418282611af8565b5050565b7f9f2df0fed2c77648de5860a4cc508cd0818c85b8b8a1ab4ceeef8d981c8956a6610c7781610c7261162c565b6116ed565b610ca87f9f2df0fed2c77648de5860a4cc508cd0818c85b8b8a1ab4ceeef8d981c8956a6610ca361162c565b611161565b610ce7576040517f08c379a0000000000000000000000000000000000000000000000000000000008152600401610cde90613ff9565b60405180910390fd5b600f60009054906101000a900473ffffffffffffffffffffffffffffffffffffffff1673ffffffffffffffffffffffffffffffffffffffff166108fc479081150290604051600060405180830381858888f19350505050158015610d4f573d6000803e3d6000fd5b5050565b610d847f65d7a28e3265b37a6474929f336521b332c1681b933f6cb9f3376673440d862a610d7f61162c565b611161565b610dc3576040517f08c379a0000000000000000000000000000000000000000000000000000000008152600401610dba90614099565b60405180910390fd5b610dcb611b2c565b565b610de88383836040518060200160405280600081525061127a565b505050565b610dfe610df861162c565b8261178a565b610e3d576040517f08c379a0000000000000000000000000000000000000000000000000000000008152600401610e3490614079565b60405180910390fd5b610e4681611bce565b50565b6000610e53610a68565b8210610e94576040517f08c379a0000000000000000000000000000000000000000000000000000000008152600401610e8b90614039565b60405180910390fd5b600a8281548110610ece577f4e487b7100000000000000000000000000000000000000000000000000000000600052603260045260246000fd5b90600052602060002001549050919050565b6000600c60009054906101000a900460ff16905090565b6000806004600084815260200190815260200160002060009054906101000a900473ffffffffffffffffffffffffffffffffffffffff169050600073ffffffffffffffffffffffffffffffffffffffff168173ffffffffffffffffffffffffffffffffffffffff161415610fa0576040517f08c379a0000000000000000000000000000000000000000000000000000000008152600401610f9790613f39565b60405180910390fd5b80915050919050565b6706f05b59d3b20000341015610ff4576040517f08c379a0000000000000000000000000000000000000000000000000000000008152600401610feb90614059565b60405180910390fd5b610ffd81611cdf565b50565b60008073ffffffffffffffffffffffffffffffffffffffff168273ffffffffffffffffffffffffffffffffffffffff161415611071576040517f08c379a000000000000000000000000000000000000000000000000000000000815260040161106890613f19565b60405180910390fd5b600560008373ffffffffffffffffffffffffffffffffffffffff1673ffffffffffffffffffffffffffffffffffffffff168152602001908152602001600020549050919050565b6110e97f65d7a28e3265b37a6474929f336521b332c1681b933f6cb9f3376673440d862a6110e461162c565b611161565b611128576040517f08c379a000000000000000000000000000000000000000000000000000000000815260040161111f90613e59565b60405180910390fd5b611130611cff565b565b60006111598260016000868152602001908152602001600020611da290919063ffffffff16565b905092915050565b600080600084815260200190815260200160002060000160008373ffffffffffffffffffffffffffffffffffffffff1673ffffffffffffffffffffffffffffffffffffffff16815260200190815260200160002060009054906101000a900460ff16905092915050565b6060600380546111da9061438c565b80601f01602080910402602001604051908101604052809291908181526020018280546112069061438c565b80156112535780601f1061122857610100808354040283529160200191611253565b820191906000526020600020905b81548152906001019060200180831161123657829003601f168201915b5050505050905090565b6000801b81565b61127661126f61162c565b8383611dbc565b5050565b61128b61128561162c565b8361178a565b6112ca576040517f08c379a00000000000000000000000000000000000000000000000000000000081526004016112c190614019565b60405180910390fd5b6112d684848484611f29565b50505050565b60606112e782611f85565b6040516020016112f79190613c7e565b6040516020818303038152906040529050919050565b600061132a6001600084815260200190815260200160002061202c565b9050919050565b7f9f2df0fed2c77648de5860a4cc508cd0818c85b8b8a1ab4ceeef8d981c8956a681565b61135e82610ad5565b61136f8161136a61162c565b6116ed565b6113798383611af8565b505050565b7f65d7a28e3265b37a6474929f336521b332c1681b933f6cb9f3376673440d862a81565b6000600760008473ffffffffffffffffffffffffffffffffffffffff1673ffffffffffffffffffffffffffffffffffffffff16815260200190815260200160002060008373ffffffffffffffffffffffffffffffffffffffff1673ffffffffffffffffffffffffffffffffffffffff16815260200190815260200160002060009054906101000a900460ff16905092915050565b6114408282611161565b61151257600160008084815260200190815260200160002060000160008373ffffffffffffffffffffffffffffffffffffffff1673ffffffffffffffffffffffffffffffffffffffff16815260200190815260200160002060006101000a81548160ff0219169083151502179055506114b761162c565b73ffffffffffffffffffffffffffffffffffffffff168173ffffffffffffffffffffffffffffffffffffffff16837f2f8788117e7eff1d82e926ec794901d17c78024a50270940304540a733656f0d60405160405180910390a45b5050565b600061153e836000018373ffffffffffffffffffffffffffffffffffffffff1660001b612041565b905092915050565b60007f780e9d63000000000000000000000000000000000000000000000000000000007bffffffffffffffffffffffffffffffffffffffffffffffffffffffff1916827bffffffffffffffffffffffffffffffffffffffffffffffffffffffff191614806115b957506115b8826120b1565b5b9050919050565b60008073ffffffffffffffffffffffffffffffffffffffff166004600084815260200190815260200160002060009054906101000a900473ffffffffffffffffffffffffffffffffffffffff1673ffffffffffffffffffffffffffffffffffffffff1614159050919050565b600033905090565b816006600083815260200190815260200160002060006101000a81548173ffffffffffffffffffffffffffffffffffffffff021916908373ffffffffffffffffffffffffffffffffffffffff160217905550808273ffffffffffffffffffffffffffffffffffffffff166116a783610ef7565b73ffffffffffffffffffffffffffffffffffffffff167f8c5be1e5ebec7d5bd14f71427d1e84f3dd0314c0f7b2291e5b200ac8c7c3b92560405160405180910390a45050565b6116f78282611161565b6117865761171c8173ffffffffffffffffffffffffffffffffffffffff166014612193565b61172a8360001c6020612193565b60405160200161173b929190613ca0565b6040516020818303038152906040526040517f08c379a000000000000000000000000000000000000000000000000000000000815260040161177d9190613d77565b60405180910390fd5b5050565b6000611795826115c0565b6117d4576040517f08c379a00000000000000000000000000000000000000000000000000000000081526004016117cb90613eb9565b60405180910390fd5b60006117df83610ef7565b90508073ffffffffffffffffffffffffffffffffffffffff168473ffffffffffffffffffffffffffffffffffffffff16148061184e57508373ffffffffffffffffffffffffffffffffffffffff1661183684610890565b73ffffffffffffffffffffffffffffffffffffffff16145b8061185f575061185e81856113a2565b5b91505092915050565b8273ffffffffffffffffffffffffffffffffffffffff1661188882610ef7565b73ffffffffffffffffffffffffffffffffffffffff16146118de576040517f08c379a00000000000000000000000000000000000000000000000000000000081526004016118d590613f99565b60405180910390fd5b600073ffffffffffffffffffffffffffffffffffffffff168273ffffffffffffffffffffffffffffffffffffffff16141561194e576040517f08c379a000000000000000000000000000000000000000000000000000000000815260040161194590613e79565b60405180910390fd5b61195983838361248d565b611964600082611634565b6001600560008573ffffffffffffffffffffffffffffffffffffffff1673ffffffffffffffffffffffffffffffffffffffff16815260200190815260200160002060008282546119b4919061426e565b925050819055506001600560008473ffffffffffffffffffffffffffffffffffffffff1673ffffffffffffffffffffffffffffffffffffffff1681526020019081526020016000206000828254611a0b919061418d565b92505081905550816004600083815260200190815260200160002060006101000a81548173ffffffffffffffffffffffffffffffffffffffff021916908373ffffffffffffffffffffffffffffffffffffffff160217905550808273ffffffffffffffffffffffffffffffffffffffff168473ffffffffffffffffffffffffffffffffffffffff167fddf252ad1be2c89b69c2b068fc378daa952ba7f163c4a11628f55a4df523b3ef60405160405180910390a4505050565b611ace8282611436565b611af3816001600085815260200190815260200160002061151690919063ffffffff16565b505050565b611b02828261249d565b611b27816001600085815260200190815260200160002061257e90919063ffffffff16565b505050565b611b34610ee0565b611b73576040517f08c379a0000000000000000000000000000000000000000000000000000000008152600401611b6a90613dd9565b60405180910390fd5b6000600c60006101000a81548160ff0219169083151502179055507f5db9ee0a495bf2e6ff9c91a7834c1ba4fdd244a5e8aa4e537bd38aeae4b073aa611bb761162c565b604051611bc49190613cda565b60405180910390a1565b6000611bd982610ef7565b9050611be78160008461248d565b611bf2600083611634565b6001600560008373ffffffffffffffffffffffffffffffffffffffff1673ffffffffffffffffffffffffffffffffffffffff1681526020019081526020016000206000828254611c42919061426e565b925050819055506004600083815260200190815260200160002060006101000a81549073ffffffffffffffffffffffffffffffffffffffff021916905581600073ffffffffffffffffffffffffffffffffffffffff168273ffffffffffffffffffffffffffffffffffffffff167fddf252ad1be2c89b69c2b068fc378daa952ba7f163c4a11628f55a4df523b3ef60405160405180910390a45050565b611cf281611ced600d6125ae565b6125bc565b611cfc600d61278a565b50565b611d07610ee0565b15611d47576040517f08c379a0000000000000000000000000000000000000000000000000000000008152600401611d3e90613ed9565b60405180910390fd5b6001600c60006101000a81548160ff0219169083151502179055507f62e78cea01bee320cd4e420270b5ea74000d11b0c9f74754ebdbfc544b05a258611d8b61162c565b604051611d989190613cda565b60405180910390a1565b6000611db183600001836127a0565b60001c905092915050565b8173ffffffffffffffffffffffffffffffffffffffff168373ffffffffffffffffffffffffffffffffffffffff161415611e2b576040517f08c379a0000000000000000000000000000000000000000000000000000000008152600401611e2290613e99565b60405180910390fd5b80600760008573ffffffffffffffffffffffffffffffffffffffff1673ffffffffffffffffffffffffffffffffffffffff16815260200190815260200160002060008473ffffffffffffffffffffffffffffffffffffffff1673ffffffffffffffffffffffffffffffffffffffff16815260200190815260200160002060006101000a81548160ff0219169083151502179055508173ffffffffffffffffffffffffffffffffffffffff168373ffffffffffffffffffffffffffffffffffffffff167f17307eab39ab6107e8899845ad3d59bd9653f200f220920489ca2b5937696c3183604051611f1c9190613d41565b60405180910390a3505050565b611f34848484611868565b611f40848484846127f1565b611f7f576040517f08c379a0000000000000000000000000000000000000000000000000000000008152600401611f7690613e19565b60405180910390fd5b50505050565b6060611f90826115c0565b611fcf576040517f08c379a0000000000000000000000000000000000000000000000000000000008152600401611fc690613fb9565b60405180910390fd5b6000611fd9612988565b90506000815111611ff95760405180602001604052806000815250612024565b8061200384612a1a565b604051602001612014929190613c5a565b6040516020818303038152906040525b915050919050565b600061203a82600001612bc7565b9050919050565b600061204d8383612bd8565b6120a65782600001829080600181540180825580915050600190039060005260206000200160009091909190915055826000018054905083600101600084815260200190815260200160002081905550600190506120ab565b600090505b92915050565b60007f80ac58cd000000000000000000000000000000000000000000000000000000007bffffffffffffffffffffffffffffffffffffffffffffffffffffffff1916827bffffffffffffffffffffffffffffffffffffffffffffffffffffffff1916148061217c57507f5b5e139f000000000000000000000000000000000000000000000000000000007bffffffffffffffffffffffffffffffffffffffffffffffffffffffff1916827bffffffffffffffffffffffffffffffffffffffffffffffffffffffff1916145b8061218c575061218b82612bfb565b5b9050919050565b6060600060028360026121a69190614214565b6121b0919061418d565b67ffffffffffffffff8111156121ef577f4e487b7100000000000000000000000000000000000000000000000000000000600052604160045260246000fd5b6040519080825280601f01601f1916602001820160405280156122215781602001600182028036833780820191505090505b5090507f30000000000000000000000000000000000000000000000000000000000000008160008151811061227f577f4e487b7100000000000000000000000000000000000000000000000000000000600052603260045260246000fd5b60200101907effffffffffffffffffffffffffffffffffffffffffffffffffffffffffffff1916908160001a9053507f780000000000000000000000000000000000000000000000000000000000000081600181518110612309577f4e487b7100000000000000000000000000000000000000000000000000000000600052603260045260246000fd5b60200101907effffffffffffffffffffffffffffffffffffffffffffffffffffffffffffff1916908160001a905350600060018460026123499190614214565b612353919061418d565b90505b600181111561243f577f3031323334353637383961626364656600000000000000000000000000000000600f8616601081106123bb577f4e487b7100000000000000000000000000000000000000000000000000000000600052603260045260246000fd5b1a60f81b8282815181106123f8577f4e487b7100000000000000000000000000000000000000000000000000000000600052603260045260246000fd5b60200101907effffffffffffffffffffffffffffffffffffffffffffffffffffffffffffff1916908160001a905350600485901c94508061243890614362565b9050612356565b5060008414612483576040517f08c379a000000000000000000000000000000000000000000000000000000000815260040161247a90613d99565b60405180910390fd5b8091505092915050565b612498838383612c75565b505050565b6124a78282611161565b1561257a57600080600084815260200190815260200160002060000160008373ffffffffffffffffffffffffffffffffffffffff1673ffffffffffffffffffffffffffffffffffffffff16815260200190815260200160002060006101000a81548160ff02191690831515021790555061251f61162c565b73ffffffffffffffffffffffffffffffffffffffff168173ffffffffffffffffffffffffffffffffffffffff16837ff6391f5c32d9c69d2a47ea670b442974b53935d1edc7fd64eb21e047a839171b60405160405180910390a45b5050565b60006125a6836000018373ffffffffffffffffffffffffffffffffffffffff1660001b612ccd565b905092915050565b600081600001549050919050565b600073ffffffffffffffffffffffffffffffffffffffff168273ffffffffffffffffffffffffffffffffffffffff16141561262c576040517f08c379a000000000000000000000000000000000000000000000000000000000815260040161262390613f59565b60405180910390fd5b612635816115c0565b15612675576040517f08c379a000000000000000000000000000000000000000000000000000000000815260040161266c90613e39565b60405180910390fd5b6126816000838361248d565b6001600560008473ffffffffffffffffffffffffffffffffffffffff1673ffffffffffffffffffffffffffffffffffffffff16815260200190815260200160002060008282546126d1919061418d565b92505081905550816004600083815260200190815260200160002060006101000a81548173ffffffffffffffffffffffffffffffffffffffff021916908373ffffffffffffffffffffffffffffffffffffffff160217905550808273ffffffffffffffffffffffffffffffffffffffff16600073ffffffffffffffffffffffffffffffffffffffff167fddf252ad1be2c89b69c2b068fc378daa952ba7f163c4a11628f55a4df523b3ef60405160405180910390a45050565b6001816000016000828254019250508190555050565b60008260000182815481106127de577f4e487b7100000000000000000000000000000000000000000000000000000000600052603260045260246000fd5b9060005260206000200154905092915050565b60006128128473ffffffffffffffffffffffffffffffffffffffff16612e53565b1561297b578373ffffffffffffffffffffffffffffffffffffffff1663150b7a0261283b61162c565b8786866040518563ffffffff1660e01b815260040161285d9493929190613cf5565b602060405180830381600087803b15801561287757600080fd5b505af19250505080156128a857506040513d601f19601f820116820180604052508101906128a59190613732565b60015b61292b573d80600081146128d8576040519150601f19603f3d011682016040523d82523d6000602084013e6128dd565b606091505b50600081511415612923576040517f08c379a000000000000000000000000000000000000000000000000000000000815260040161291a90613e19565b60405180910390fd5b805181602001fd5b63150b7a0260e01b7bffffffffffffffffffffffffffffffffffffffffffffffffffffffff1916817bffffffffffffffffffffffffffffffffffffffffffffffffffffffff191614915050612980565b600190505b949350505050565b6060600e80546129979061438c565b80601f01602080910402602001604051908101604052809291908181526020018280546129c39061438c565b8015612a105780601f106129e557610100808354040283529160200191612a10565b820191906000526020600020905b8154815290600101906020018083116129f357829003601f168201915b5050505050905090565b60606000821415612a62576040518060400160405280600181526020017f30000000000000000000000000000000000000000000000000000000000000008152509050612bc2565b600082905060005b60008214612a94578080612a7d906143ef565b915050600a82612a8d91906141e3565b9150612a6a565b60008167ffffffffffffffff811115612ad6577f4e487b7100000000000000000000000000000000000000000000000000000000600052604160045260246000fd5b6040519080825280601f01601f191660200182016040528015612b085781602001600182028036833780820191505090505b5090505b60008514612bbb57600182612b21919061426e565b9150600a85612b309190614438565b6030612b3c919061418d565b60f81b818381518110612b78577f4e487b7100000000000000000000000000000000000000000000000000000000600052603260045260246000fd5b60200101907effffffffffffffffffffffffffffffffffffffffffffffffffffffffffffff1916908160001a905350600a85612bb491906141e3565b9450612b0c565b8093505050505b919050565b600081600001805490509050919050565b600080836001016000848152602001908152602001600020541415905092915050565b60007f5a05180f000000000000000000000000000000000000000000000000000000007bffffffffffffffffffffffffffffffffffffffffffffffffffffffff1916827bffffffffffffffffffffffffffffffffffffffffffffffffffffffff19161480612c6e5750612c6d82612e66565b5b9050919050565b612c80838383612ee0565b612c88610ee0565b15612cc8576040517f08c379a0000000000000000000000000000000000000000000000000000000008152600401612cbf90613db9565b60405180910390fd5b505050565b60008083600101600084815260200190815260200160002054905060008114612e47576000600182612cff919061426e565b9050600060018660000180549050612d17919061426e565b9050818114612dd2576000866000018281548110612d5e577f4e487b7100000000000000000000000000000000000000000000000000000000600052603260045260246000fd5b9060005260206000200154905080876000018481548110612da8577f4e487b7100000000000000000000000000000000000000000000000000000000600052603260045260246000fd5b90600052602060002001819055508387600101600083815260200190815260200160002081905550505b85600001805480612e0c577f4e487b7100000000000000000000000000000000000000000000000000000000600052603160045260246000fd5b600190038181906000526020600020016000905590558560010160008681526020019081526020016000206000905560019350505050612e4d565b60009150505b92915050565b600080823b905060008111915050919050565b60007f7965db0b000000000000000000000000000000000000000000000000000000007bffffffffffffffffffffffffffffffffffffffffffffffffffffffff1916827bffffffffffffffffffffffffffffffffffffffffffffffffffffffff19161480612ed95750612ed882612ff4565b5b9050919050565b612eeb83838361305e565b600073ffffffffffffffffffffffffffffffffffffffff168373ffffffffffffffffffffffffffffffffffffffff161415612f2e57612f2981613063565b612f6d565b8173ffffffffffffffffffffffffffffffffffffffff168373ffffffffffffffffffffffffffffffffffffffff1614612f6c57612f6b83826130ac565b5b5b600073ffffffffffffffffffffffffffffffffffffffff168273ffffffffffffffffffffffffffffffffffffffff161415612fb057612fab81613219565b612fef565b8273ffffffffffffffffffffffffffffffffffffffff168273ffffffffffffffffffffffffffffffffffffffff1614612fee57612fed828261335c565b5b5b505050565b60007f01ffc9a7000000000000000000000000000000000000000000000000000000007bffffffffffffffffffffffffffffffffffffffffffffffffffffffff1916827bffffffffffffffffffffffffffffffffffffffffffffffffffffffff1916149050919050565b505050565b600a80549050600b600083815260200190815260200160002081905550600a81908060018154018082558091505060019003906000526020600020016000909190919091505550565b600060016130b984611000565b6130c3919061426e565b90506000600960008481526020019081526020016000205490508181146131a8576000600860008673ffffffffffffffffffffffffffffffffffffffff1673ffffffffffffffffffffffffffffffffffffffff168152602001908152602001600020600084815260200190815260200160002054905080600860008773ffffffffffffffffffffffffffffffffffffffff1673ffffffffffffffffffffffffffffffffffffffff168152602001908152602001600020600084815260200190815260200160002081905550816009600083815260200190815260200160002081905550505b6009600084815260200190815260200160002060009055600860008573ffffffffffffffffffffffffffffffffffffffff1673ffffffffffffffffffffffffffffffffffffffff16815260200190815260200160002060008381526020019081526020016000206000905550505050565b60006001600a8054905061322d919061426e565b90506000600b60008481526020019081526020016000205490506000600a8381548110613283577f4e487b7100000000000000000000000000000000000000000000000000000000600052603260045260246000fd5b9060005260206000200154905080600a83815481106132cb577f4e487b7100000000000000000000000000000000000000000000000000000000600052603260045260246000fd5b906000526020600020018190555081600b600083815260200190815260200160002081905550600b600085815260200190815260200160002060009055600a805480613340577f4e487b7100000000000000000000000000000000000000000000000000000000600052603160045260246000fd5b6001900381819060005260206000200160009055905550505050565b600061336783611000565b905081600860008573ffffffffffffffffffffffffffffffffffffffff1673ffffffffffffffffffffffffffffffffffffffff168152602001908152602001600020600083815260200190815260200160002081905550806009600084815260200190815260200160002081905550505050565b60006133ee6133e984614119565b6140f4565b90508281526020810184848401111561340657600080fd5b613411848285614320565b509392505050565b60008135905061342881614cd3565b92915050565b60008135905061343d81614cea565b92915050565b60008135905061345281614d01565b92915050565b60008135905061346781614d18565b92915050565b60008151905061347c81614d18565b92915050565b600082601f83011261349357600080fd5b81356134a38482602086016133db565b91505092915050565b6000813590506134bb81614d2f565b92915050565b6000602082840312156134d357600080fd5b60006134e184828501613419565b91505092915050565b600080604083850312156134fd57600080fd5b600061350b85828601613419565b925050602061351c85828601613419565b9150509250929050565b60008060006060848603121561353b57600080fd5b600061354986828701613419565b935050602061355a86828701613419565b925050604061356b868287016134ac565b9150509250925092565b6000806000806080858703121561358b57600080fd5b600061359987828801613419565b94505060206135aa87828801613419565b93505060406135bb878288016134ac565b925050606085013567ffffffffffffffff8111156135d857600080fd5b6135e487828801613482565b91505092959194509250565b6000806040838503121561360357600080fd5b600061361185828601613419565b92505060206136228582860161342e565b9150509250929050565b6000806040838503121561363f57600080fd5b600061364d85828601613419565b925050602061365e858286016134ac565b9150509250929050565b60006020828403121561367a57600080fd5b600061368884828501613443565b91505092915050565b600080604083850312156136a457600080fd5b60006136b285828601613443565b92505060206136c385828601613419565b9150509250929050565b600080604083850312156136e057600080fd5b60006136ee85828601613443565b92505060206136ff858286016134ac565b9150509250929050565b60006020828403121561371b57600080fd5b600061372984828501613458565b91505092915050565b60006020828403121561374457600080fd5b60006137528482850161346d565b91505092915050565b60006020828403121561376d57600080fd5b600061377b848285016134ac565b91505092915050565b61378d816142a2565b82525050565b61379c816142b4565b82525050565b6137ab816142c0565b82525050565b60006137bc8261414a565b6137c68185614160565b93506137d681856020860161432f565b6137df81614525565b840191505092915050565b60006137f582614155565b6137ff8185614171565b935061380f81856020860161432f565b61381881614525565b840191505092915050565b600061382e82614155565b6138388185614182565b935061384881856020860161432f565b80840191505092915050565b6000613861602083614171565b915061386c82614536565b602082019050919050565b6000613884602b83614171565b915061388f8261455f565b604082019050919050565b60006138a7601483614171565b91506138b2826145ae565b602082019050919050565b60006138ca602b83614171565b91506138d5826145d7565b604082019050919050565b60006138ed603283614171565b91506138f882614626565b604082019050919050565b6000613910601c83614171565b915061391b82614675565b602082019050919050565b6000613933603e83614171565b915061393e8261469e565b604082019050919050565b6000613956602483614171565b9150613961826146ed565b604082019050919050565b6000613979601983614171565b91506139848261473c565b602082019050919050565b600061399c602c83614171565b91506139a782614765565b604082019050919050565b60006139bf601083614171565b91506139ca826147b4565b602082019050919050565b60006139e2603883614171565b91506139ed826147dd565b604082019050919050565b6000613a05602a83614171565b9150613a108261482c565b604082019050919050565b6000613a28602983614171565b9150613a338261487b565b604082019050919050565b6000613a4b602083614171565b9150613a56826148ca565b602082019050919050565b6000613a6e602c83614171565b9150613a79826148f3565b604082019050919050565b6000613a91600583614182565b9150613a9c82614942565b600582019050919050565b6000613ab4602983614171565b9150613abf8261496b565b604082019050919050565b6000613ad7602f83614171565b9150613ae2826149ba565b604082019050919050565b6000613afa602183614171565b9150613b0582614a09565b604082019050919050565b6000613b1d603e83614171565b9150613b2882614a58565b604082019050919050565b6000613b40603183614171565b9150613b4b82614aa7565b604082019050919050565b6000613b63602c83614171565b9150613b6e82614af6565b604082019050919050565b6000613b86601783614182565b9150613b9182614b45565b601782019050919050565b6000613ba9602683614171565b9150613bb482614b6e565b604082019050919050565b6000613bcc603083614171565b9150613bd782614bbd565b604082019050919050565b6000613bef604083614171565b9150613bfa82614c0c565b604082019050919050565b6000613c12601183614182565b9150613c1d82614c5b565b601182019050919050565b6000613c35602f83614171565b9150613c4082614c84565b604082019050919050565b613c5481614316565b82525050565b6000613c668285613823565b9150613c728284613823565b91508190509392505050565b6000613c8a8284613823565b9150613c9582613a84565b915081905092915050565b6000613cab82613b79565b9150613cb78285613823565b9150613cc282613c05565b9150613cce8284613823565b91508190509392505050565b6000602082019050613cef6000830184613784565b92915050565b6000608082019050613d0a6000830187613784565b613d176020830186613784565b613d246040830185613c4b565b8181036060830152613d3681846137b1565b905095945050505050565b6000602082019050613d566000830184613793565b92915050565b6000602082019050613d7160008301846137a2565b92915050565b60006020820190508181036000830152613d9181846137ea565b905092915050565b60006020820190508181036000830152613db281613854565b9050919050565b60006020820190508181036000830152613dd281613877565b9050919050565b60006020820190508181036000830152613df28161389a565b9050919050565b60006020820190508181036000830152613e12816138bd565b9050919050565b60006020820190508181036000830152613e32816138e0565b9050919050565b60006020820190508181036000830152613e5281613903565b9050919050565b60006020820190508181036000830152613e7281613926565b9050919050565b60006020820190508181036000830152613e9281613949565b9050919050565b60006020820190508181036000830152613eb28161396c565b9050919050565b60006020820190508181036000830152613ed28161398f565b9050919050565b60006020820190508181036000830152613ef2816139b2565b9050919050565b60006020820190508181036000830152613f12816139d5565b9050919050565b60006020820190508181036000830152613f32816139f8565b9050919050565b60006020820190508181036000830152613f5281613a1b565b9050919050565b60006020820190508181036000830152613f7281613a3e565b9050919050565b60006020820190508181036000830152613f9281613a61565b9050919050565b60006020820190508181036000830152613fb281613aa7565b9050919050565b60006020820190508181036000830152613fd281613aca565b9050919050565b60006020820190508181036000830152613ff281613aed565b9050919050565b6000602082019050818103600083015261401281613b10565b9050919050565b6000602082019050818103600083015261403281613b33565b9050919050565b6000602082019050818103600083015261405281613b56565b9050919050565b6000602082019050818103600083015261407281613b9c565b9050919050565b6000602082019050818103600083015261409281613bbf565b9050919050565b600060208201905081810360008301526140b281613be2565b9050919050565b600060208201905081810360008301526140d281613c28565b9050919050565b60006020820190506140ee6000830184613c4b565b92915050565b60006140fe61410f565b905061410a82826143be565b919050565b6000604051905090565b600067ffffffffffffffff821115614134576141336144f6565b5b61413d82614525565b9050602081019050919050565b600081519050919050565b600081519050919050565b600082825260208201905092915050565b600082825260208201905092915050565b600081905092915050565b600061419882614316565b91506141a383614316565b9250827fffffffffffffffffffffffffffffffffffffffffffffffffffffffffffffffff038211156141d8576141d7614469565b5b828201905092915050565b60006141ee82614316565b91506141f983614316565b92508261420957614208614498565b5b828204905092915050565b600061421f82614316565b915061422a83614316565b9250817fffffffffffffffffffffffffffffffffffffffffffffffffffffffffffffffff048311821515161561426357614262614469565b5b828202905092915050565b600061427982614316565b915061428483614316565b92508282101561429757614296614469565b5b828203905092915050565b60006142ad826142f6565b9050919050565b60008115159050919050565b6000819050919050565b60007fffffffff0000000000000000000000000000000000000000000000000000000082169050919050565b600073ffffffffffffffffffffffffffffffffffffffff82169050919050565b6000819050919050565b82818337600083830152505050565b60005b8381101561434d578082015181840152602081019050614332565b8381111561435c576000848401525b50505050565b600061436d82614316565b9150600082141561438157614380614469565b5b600182039050919050565b600060028204905060018216806143a457607f821691505b602082108114156143b8576143b76144c7565b5b50919050565b6143c782614525565b810181811067ffffffffffffffff821117156143e6576143e56144f6565b5b80604052505050565b60006143fa82614316565b91507fffffffffffffffffffffffffffffffffffffffffffffffffffffffffffffffff82141561442d5761442c614469565b5b600182019050919050565b600061444382614316565b915061444e83614316565b92508261445e5761445d614498565b5b828206905092915050565b7f4e487b7100000000000000000000000000000000000000000000000000000000600052601160045260246000fd5b7f4e487b7100000000000000000000000000000000000000000000000000000000600052601260045260246000fd5b7f4e487b7100000000000000000000000000000000000000000000000000000000600052602260045260246000fd5b7f4e487b7100000000000000000000000000000000000000000000000000000000600052604160045260246000fd5b6000601f19601f8301169050919050565b7f537472696e67733a20686578206c656e67746820696e73756666696369656e74600082015250565b7f4552433732315061757361626c653a20746f6b656e207472616e73666572207760008201527f68696c6520706175736564000000000000000000000000000000000000000000602082015250565b7f5061757361626c653a206e6f7420706175736564000000000000000000000000600082015250565b7f455243373231456e756d657261626c653a206f776e657220696e646578206f7560008201527f74206f6620626f756e6473000000000000000000000000000000000000000000602082015250565b7f4552433732313a207472616e7366657220746f206e6f6e20455243373231526560008201527f63656976657220696d706c656d656e7465720000000000000000000000000000602082015250565b7f4552433732313a20746f6b656e20616c7265616479206d696e74656400000000600082015250565b7f4552433732315072657365744d696e7465725061757365724175746f49643a2060008201527f6d75737420686176652070617573657220726f6c6520746f2070617573650000602082015250565b7f4552433732313a207472616e7366657220746f20746865207a65726f2061646460008201527f7265737300000000000000000000000000000000000000000000000000000000602082015250565b7f4552433732313a20617070726f766520746f2063616c6c657200000000000000600082015250565b7f4552433732313a206f70657261746f7220717565727920666f72206e6f6e657860008201527f697374656e7420746f6b656e0000000000000000000000000000000000000000602082015250565b7f5061757361626c653a2070617573656400000000000000000000000000000000600082015250565b7f4552433732313a20617070726f76652063616c6c6572206973206e6f74206f7760008201527f6e6572206e6f7220617070726f76656420666f7220616c6c0000000000000000602082015250565b7f4552433732313a2062616c616e636520717565727920666f7220746865207a6560008201527f726f206164647265737300000000000000000000000000000000000000000000602082015250565b7f4552433732313a206f776e657220717565727920666f72206e6f6e657869737460008201527f656e7420746f6b656e0000000000000000000000000000000000000000000000602082015250565b7f4552433732313a206d696e7420746f20746865207a65726f2061646472657373600082015250565b7f4552433732313a20617070726f76656420717565727920666f72206e6f6e657860008201527f697374656e7420746f6b656e0000000000000000000000000000000000000000602082015250565b7f2e6a736f6e000000000000000000000000000000000000000000000000000000600082015250565b7f4552433732313a207472616e73666572206f6620746f6b656e2074686174206960008201527f73206e6f74206f776e0000000000000000000000000000000000000000000000602082015250565b7f4552433732314d657461646174613a2055524920717565727920666f72206e6f60008201527f6e6578697374656e7420746f6b656e0000000000000000000000000000000000602082015250565b7f4552433732313a20617070726f76616c20746f2063757272656e74206f776e6560008201527f7200000000000000000000000000000000000000000000000000000000000000602082015250565b7f4e6963652074727921204d7573742068617665206d696e74657220726f6c652060008201527f746f2061636365737320746869732066756e6374696f6e2066756e64732e0000602082015250565b7f4552433732313a207472616e736665722063616c6c6572206973206e6f74206f60008201527f776e6572206e6f7220617070726f766564000000000000000000000000000000602082015250565b7f455243373231456e756d657261626c653a20676c6f62616c20696e646578206f60008201527f7574206f6620626f756e64730000000000000000000000000000000000000000602082015250565b7f416363657373436f6e74726f6c3a206163636f756e7420000000000000000000600082015250565b7f546865206d696e696d756d20707269636520746f206d696e7420697320302e3560008201527f2065746865720000000000000000000000000000000000000000000000000000602082015250565b7f4552433732314275726e61626c653a2063616c6c6572206973206e6f74206f7760008201527f6e6572206e6f7220617070726f76656400000000000000000000000000000000602082015250565b7f4552433732315072657365744d696e7465725061757365724175746f49643a2060008201527f6d75737420686176652070617573657220726f6c6520746f20756e7061757365602082015250565b7f206973206d697373696e6720726f6c6520000000000000000000000000000000600082015250565b7f416363657373436f6e74726f6c3a2063616e206f6e6c792072656e6f756e636560008201527f20726f6c657320666f722073656c660000000000000000000000000000000000602082015250565b614cdc816142a2565b8114614ce757600080fd5b50565b614cf3816142b4565b8114614cfe57600080fd5b50565b614d0a816142c0565b8114614d1557600080fd5b50565b614d21816142ca565b8114614d2c57600080fd5b50565b614d3881614316565b8114614d4357600080fd5b5056fea26469706673582212208f8effeac7410cf9e0754f4caad2322c6ed8d435ce1e1e893526bbe6592a1ba964736f6c6343000804003368747470733a2f2f7777772e7072646779732e636f6d2f7768697a2d6b6964732f6a736f6e732f",
  "linkReferences": {},
  "deployedLinkReferences": {}
}